:03000000020350A8
:0C035000787FE4F6D8FD75812A0202D8FF
:10033C00C0F9A4B0999282F88090407924301912B7
:04034C000278001023
:1002D800E4F508F50912032F0509E5097002050878
:1002E800C394D0E508940740EC12028EE522FE7C08
:1002F80000E42523F52AEC3EF529E524547FFEE4A5
:100308002525F528EC3EF527AD2AAC29AF28FE02B5
:0203180001845E
:040365007F02DFFE36
:010369002271
:08035C007F037E01DEFEDFFAE3
:010364002276
:10031A00AE0CAF0D12014E7C007D0A12014E740E16
:05032A002DF8E6F5903E
:0C032F007F017E8E7D02DDFEDEFADFF62F
:01033B00229F
:10028E00E4FCC2A4FB12032F0BBB14F9D2A420A4CE
:10029E00FD30A4FD20A4FDECC39405502C7D80E41C
:1002AE00FB30A4FD12035C12035C74222CF8E620D2
:1002BE00A407FFEDF45FF680024DF6EDC313FD20AB
:0902CE00A4FD0BBB08DB0C80CE83
:0102D7002204
:080184008E0A8F0B8C0C8D0D0F
:10018C00780E7C007D007BFF7A03793C7E007F0A31
:10019C001200D378187C007D007BFF7A0379467EB1
:1001AC00007F0A1200D3D2A0C2A1C2A2C2A3120322
:1001BC0065AE0AAF0B7C007D0A1200F9740E2DF8A7
:1001CC00E6F5B0AE0CAF0D12032175B0FF7590FFC4
:1001DC00C2A0D2A1C2A2C2A3120365AE0AAF0B7C0D
:1001EC00007D0A1200F97C007D0A1200F974182DAA
:1001FC00F8E6F5B0AE0CAF0D7C007D0A12014E7C1A
:10020C00007D0A12014E741812032A75B0FF759006
:10021C00FFC2A0C2A1D2A2C2A3120365AE0AAF0B49
:10022C007C007D641200F97C007D0A1200F9740ECA
:10023C002DF8E6F5B07C007D6412031A75B0FF75DD
:10024C0090FFC2A0C2A1C2A2D2A3120365E524D31F
:10025C00947F400575B0BF8019AE0AAF0B7C037D4F
:10026C00E81200F97C007D0A1200F9740E2DF8E6F4
:10027C00F5B07C037DE812031A75B0FF7590FF0290
:02028C0001B2BD
:10000300E709F608DFFA8046E709F208DFFA803EDF
:1000130088828C83E709F0A3DFFA8032E309F608CC
:10002300DFFA8078E309F208DFFA807088828C8334
:10003300E309F0A3DFFA806489828A83E0A3F608E8
:10004300DFFA805889828A83E0A3F208DFFA804CC2
:1000530080D280FA80C680D4806980F28033801099
:1000630080A680EA809A80A880DA80E280CA803302
:1000730089828A83ECFAE493A3C8C582C8CCC5837A
:10008300CCF0A3C8C582C8CCC583CCDFE9DEE7804A
:100093000D89828A83E493A3F608DFF9ECFAA9F0C9
:1000A300EDFB2289828A83ECFAE0A3C8C582C8CC1F
:1000B300C583CCF0A3C8C582C8CCC583CCDFEADE38
:1000C300E880DB89828A83E493A3F208DFF980CC9A
:1000D30088F0EF60010E4E60C388F0ED2402B40493
:1000E3000050B9F582EB2402B4040050AF2323453A
:0600F3008223900053730C
:1000F900BC000BBE0029EF8DF084FFADF022E4CCEB
:10010900F875F008EF2FFFEE33FEEC33FCEE9DECB3
:10011900984005FCEE9DFE0FD5F0E9E4CEFD22EDF9
:10012900F8F5F0EE8420D21CFEADF075F008EF2F43
:10013900FFED33FD4007985006D5F0F222C398FD34
:050149000FD5F0EA22D1
:10014E00C2D5EC30E709B2D5E4C39DFDE49CFCEECC
:10015E0030E715B2D5E4C39FFFE49EFE1200F9C34B
:10016E00E49DFDE49CFC80031200F930D507C3E446
:06017E009FFFE49EFE223B
:00000001FF
